:1000000012C0E0C429C52AC03EC428C027C026C0EB
:10001000FAC3CDC323C074C421C020C049C51EC0CB
:100020001DC01CC01BC011241FBECFE5D4E0DEBF25
:10003000CDBF11E0A0E6B0E0E8ECFAE002C0059028
:100040000D92AC3DB107D9F712E0ACEDB1E001C0C3
:100050001D92A833B107E1F774D334C5D1CFE4E1E1
:10006000F2E0CF014E961192E817F907E1F70895F3
:10007000882371F48FEF9FE5A3E081509040A0406A
:10008000E1F700C000001092E6011092E70111C0F4
:10009000813041F48091E6018F5F8093E6011092F8
:1000A000E7010BC0823029F48091E7018F5F8093D4
:1000B000E7018091E701853048F58091E6018230C3
:1000C000B1F0833028F4882351F08130F9F40BC06B
:1000D0008430A9F0843078F08530C1F414C080E613
:1000E00090E095D2089585E690E091D2089581E759
:1000F00090E08DD208958AEA90E089D2089582EE48
:1001000090E085D208958EEE90E081D2089581B37B
:10011000827081BB899A82B3806F82BB87B38F6004
:1001200087BB88B3836088BBA198A99810923602D8
:100130001092F501109235021092F40121E0209303
:10014000320282E091E09093DE018093DD01209302
:10015000E1012093E2012093E5011092E701209351
:10016000E4012093E30178948AB188698AB980B563
:10017000866880BD10BC85E089B989B7856489BF70
:1001800085B78D7F85BF85B7816085BF8BB780645C
:100190008BBF85B78C6085BF8BB780688BBF089598
:1001A000813011F4C29A0895823009F4C39A0895F7
:1001B000813011F4C2980895823009F4C3980895EB
:1001C0008091EC01882341F08091E1018111C29A74
:1001D0008091E2018111C39A08951F93182F8130F5
:1001E000A1F48091E101882321F01092E101C098EF
:1001F00004C081E08093E101C09A8091F0018823DE
:1002000021F08091EC018111DBDF1230A1F48091AB
:10021000E201882321F01092E201C19804C081E03C
:100220008093E201C19A8091F001882321F08091AE
:10023000EC018111C5DF8091E101882349F48091AF
:10024000E301882319F081E0B3DF02C081E0A8DF79
:100250008091E201882349F48091E401882319F018
:1002600082E0A6DF02C082E09BDF1F91089512BEEC
:1002700083B7856083BF10923202089583B78A7F67
:1002800083BF81E08093320208958EB585608EBD74
:1002900008958EB5887F8EBD1092E9011092E80115
:1002A0001092F40108958091EA01882381F08091F1
:1002B000EB01882331F081E073DF81E08093EE0170
:1002C000089582E06DDF81E08093EF0108958091D1
:1002D000EB01882329F081E06BDF1092EE01089595
:1002E00082E066DF1092EF0108951092F401809190
:1002F000140280538A3058F0E5E1F2E020E030E06B
:100300002F5F3F4F819180538A30D0F702C020E0A9
:1003100030E0F901EC5EFD4F6081F901EB5EFD4FCD
:1003200080E090E0AC01440F551F9C01220F331F69
:10033000220F331F220F331F240F351F862F90E00B
:10034000C097820F931F6191262F20532A3050F3BC
:100350009093E9018093E8018CE18DBD80EC8CBD28
:100360007EDE93DF0895EF92FF920F931F93CF935A
:10037000DF93EB01F99021E040E050E0EE2403C070
:100380004F5F5F4F2F5F342FFC01E40FF11DE081C1
:10039000EF1519F04E31A0F32BC04E3198F4FF2029
:1003A000C1F0FE010E2D06C0DC01A30FB11DAC9102
:1003B0001A1731F73F5F0F5F3E3128F41191112377
:1003C00099F707C000E0600F711DFB018081882351
:1003D00021F430E02150304002C02FEF3FEF822F58
:1003E000932FDF91CF911F910F91FF90EF90089580
:1003F000242F2F5F00E0E7CF0F931F93CF93DF935E
:100400008091E5018823C1F184E192E068E071E028
:10041000AADF99231CF080E02BDE21DEC4E1D2E0CC
:10042000CE016EE071E09FDF192FCE0161E171E036
:100430009ADF092FCE0164E171E095DF202F21239F
:100440002095221F2227221F30E0892F8095881FA8
:100450008827881F90E0822B932B009719F081E06A
:1004600007DEFDDD84E192E067E171E07CDF992346
:100470001CF082E0FDDDF3DD6091DD017091DE01B5
:1004800084E192E070DF99230CF49EC084E192E055
:100490006DE171E068DF99232CF081E081DE81E07D
:1004A0008093EE0184E192E069E271E05CDF9923E0
:1004B0002CF082E075DE81E08093EF0184E192E030
:1004C00066E371E050DF992324F081E071DE109241
:1004D000EE0184E192E063E471E045DF992324F0CA
:1004E00082E066DE1092EF0184E192E061E571E066
:1004F0003ADF992334F08091E101882311F481E0FF
:100500006CDE84E192E061E671E02DDF992334F046
:100510008091E201882311F482E05FDE84E192E0C1
:1005200062E771E020DF992334F08091E1018823B4
:1005300011F081E052DE84E192E063E871E013DFC4
:10054000992334F08091E201882311F082E045DEA6
:1005500084E192E065E971E006DF992334F0C5DEBD
:1005600081E08093EA018093EB0184E192E062EA0A
:1005700071E0F9DE992334F0B8DE81E08093EA017E
:100580001092EB0184E192E060EB71E0ECDE9923E4
:1005900034F0ABDE1092EA0181E08093EB0184E15C
:1005A00092E06EEB71E0DFDE99232CF09EDE10927C
:1005B000EA011092EB0184E192E06DEC71E0D3DE90
:1005C00099230CF066DE4BDDDF91CF911F910F91E7
:1005D0000895E82FF92F92E2DF018081833209F438
:1005E00090835D9BFECF8C9131968CB9808188235E
:1005F00019F0662389F70895623041F45D9BFECFC0
:100600008DE08CB95D9BFECF8AE08CB9089562E0E5
:10061000E0DF08958091E301882369F0869919C08D
:100620001092E30181E0BCDD8FEF9BE60197F1F7CB
:1006300000C000000EC0869B0CC081E08093E301E7
:10064000B7DD1092EE018FEF9BE60197F1F700C046
:1006500000008091E401882369F087991AC0109204
:10066000E40182E09DDD8FEF9BE60197F1F700C08A
:1006700000000895879B0DC081E08093E40182E033
:1006800097DD1092EF018FEF9BE60197F1F700C025
:1006900000000895849907C080913202882319F0E0
:1006A00081E09BDDE4DD859907C0809132028823DB
:1006B00019F082E092DDDBDD089587B1816287B9B0
:1006C00087B1817387B986B1896886B986B1897D1A
:1006D00086B9369A089584E68093DF018AE0809394
:1006E000E001089514BC85B5876085BD089514BCEC
:1006F00085B5887F85BD109233021092340208952B
:1007000014BC85B5887F85BD1092330210923402E7
:10071000839916C01092F0018091E101882331F095
:100720008091EE01882311F481E042DD8091E201A5
:10073000882331F08091EF01882311F482E038DDC5
:1007400008951F93CF93DF931092F10111E010935E
:10075000F301DDDC7894BFDF1092EE011092EF011F
:100760008EE18093ED011092F0011093EC0152DFC5
:1007700091DF8FEF9BE60197F1F700C00000C1EF1A
:10078000D1E00DC047DF86DF8FEF9BE60197F1F7E1
:1007900000C000001F5F143611F48FDF10E0888165
:1007A000882381F3188228DE10923602EBCF1F9245
:1007B0000F920FB60F9211242F933F934F935F9395
:1007C0006F937F938F939F93AF93BF93EF93FF9319
:1007D000809135028F5F80933502893119F4109230
:1007E00035024CDDFF91EF91BF91AF919F918F91B9
:1007F0007F916F915F914F913F912F910F900FBE1D
:100800000F901F9018951F920F920FB60F92112400
:100810002F933F934F935F936F937F938F939F9308
:10082000AF93BF93EF93FF938091F4018F5F809319
:10083000F4018A3079F48091E8019091E9010197FF
:100840009093E9018093E8018CE18DBD80EC8CBD33
:100850001092F4018091E8019091E901009711F460
:1008600018DD21DDFF91EF91BF91AF919F918F91A5
:100870007F916F915F914F913F912F910F900FBE9C
:100880000F901F9018951F920F920FB60F92112480
:100890002F933F934F935F936F937F938F939F9388
:1008A000AF93BF93EF93FF93809133028F5F809359
:1008B00033028A32A1F410923302809134028F5FA6
:1008C00080933402863010F0839911DF9091ED010E
:1008D00080913402981719F41092340211DFFF91BD
:1008E000EF91BF91AF919F918F917F916F915F91A8
:1008F0004F913F912F910F900FBE0F901F90189521
:100900001F920F920FB60F9211242F933F934F9384
:100910005F938F939F93AF93BF93EF93FF938091D8
:10092000F5018E3161F4E6EFF1E0CF014D962181C2
:100930002193E817F907D9F78DE18093F5012CB1E0
:100940003091360286EF91E0FC01E30FF11D208328
:100950005091F501452F4F5F4093F501242F30E072
:10096000820F931FFC01329780818D30E1F42B5070
:100970003E4FF90180818A30B1F4442369F0E6EFFB
:10098000F1E0A4E1B2E0CF010196850F911D219124
:100990002D93E817F907D9F74093360281E0809349
:1009A000F1011092F501FF91EF91BF91AF919F91ED
:1009B0008F915F914F913F912F910F900FBE0F90AC
:1009C0001F9018951F920F920FB60F9211242F931C
:1009D0003F934F935F936F937F938F939F93AF93C7
:1009E000BF93EF93FF9391E0829990E081E0209193
:1009F000F301211180E09817F1F0829B11C081E092
:100A00008093F30183990AC072DE81E08093F00144
:100A10008091EC01882379F0D3DB0DC063DE0BC03D
:100A20001092F301839907C085B590E087709070AC
:100A3000009709F457DEFF91EF91BF91AF919F911D
:100A40008F917F916F915F914F913F912F910F9077
:100A50000FBE0F901F9018951F920F920FB60F9216
:100A600011242F933F934F935F936F937F938F93B3
:100A70009F93AF93BF93EF93FF93839B08C081E055
:100A80008093F00134DE8091EC01811199DBFF91BC
:100A9000EF91BF91AF919F918F917F916F915F91F6
:100AA0004F913F912F910F900FBE0F901F9018956F
:100AB0001F920F920FB60F9211240F900FBE0F903E
:080AC0001F901895F894FFCF78
:100AC800415445310041542B43574D4F44453D3324
:100AD8000041542B43495041503D233139322E3186
:100AE80036382E312E323530232C233139322E31FF
:100AF80036382E312E323530232C233235352E32EE
:100B080035352E3235352E30230041542B4349508C
:100B18005354413D233139322E3136382E312E325D
:100B28003530232C233139322E3136382E312E31BF
:100B3800232C233235352E3235352E3235352E30AD
:100B4800230041542B4349504D55583D31004154E1
:100B58002B4349505345525645523D312C3530317F
:100B680030006E6176696400434845434B004F4B43
:100B7800004F6B006F6B004552524F5200747572F4
:100B88006E206F6E20746F70007475726E206F6EB9
:100B98002073696465007475726E206F66662074D0
:100BA8006F70007475726E206F6666207369646575
:100BB800006175746F20656E61626C6520746F707A
:100BC800006175746F20656E61626C65207369647D
:100BD80065006175746F2064697361626C65207467
:100BE8006F70006175746F2064697361626C652051
:100BF800736964650074696D6572206F6E20746F27
:100C0800700074696D6572206F6E20736964650089
:100C180074696D6572206F666620746F7000746900
:100C28006D6572206F666620736964650074696D0E
:0C0C380065722064697361626C650000E5
:00000001FF
